:1000000019C1000045C1000043C1000041C100000A
:100010003FC100003DC100003BC1000039C10000EC
:1000200037C1000035C1000033C1000031C10000FC
:100030002FC100002DC100002BC1000029C100000C
:1000400027C1000025C1000023C1000021C100001C
:100050001FC100001DC100001BC10000FEC4000044
:1000600017C10000C4C4000099C4000011C1000001
:100070000FC100000DC100000BC1000009C100004C
:1000800007C1000005C1000003C1000001C100005C
:10009000FFC00000FDC00000FBC00000F9C0000070
:1000A000F7C00000F5C00000F3C00000F1C0000080
:1000B000EFC00000EDC00000EBC00000E9C0000090
:1000C000E7C00000E5C00000E3C00000E1C00000A0
:1000D000DFC00000DDC00000DBC00000D9C00000B0
:1000E000D7C0000099029C028B028F029302D302B8
:1000F000A002A402AA02AE02B202B802BC02C0026E
:10010000D302C602CA02CE0249034E0353035D0363
:100110006703E0037103790381038B0395039F0356
:10012000AE03B803E003C203CC03D60300002100F2
:10013000240027002A002D003000330001010000B8
:10014000040107010A0100002200250028002B00FD
:100150002E003100340002010000050108010B01EE
:1001600005050505070508080808020202020A0A33
:100170000808040404040101010101010101030351
:10018000030303030303040707070C0C0C0C0C0CFC
:100190000C0C0202020206060606060606060B0BF9
:1001A0000B0B0B0B0B0B010210202008081020403A
:1001B000102040800201020108040201010204082B
:1001C00010204080804020100804020180040201B9
:1001D0008040201008040201080402010102040802
:1001E00010204080010204081020408000000A0B0B
:1001F00002090C0D0E0807030401000000000000B6
:1002000000000000000000000000000000000000EE
:1002100000000000000000001211100000000000AB
:1002200000000000000000000000000000000000CE
:100230000000770511241FBECFEFD1E2DEBFCDBF96
:1002400000E00CBF12E0A0E0B2E0ECEBF1E100E076
:100250000BBF02C007900D92A633B107D9F723E078
:10026000A6E3B2E001C01D92A836B207E1F711E0A3
:10027000CAE1D1E000E005C021970109802FFE010D
:100280006DD7C931D10780E00807B1F7F5D494C71D
:10029000B7CECF92DF92EF92FF920F931F93CF933F
:1002A000DF936C017A018B01C0E0D0E0CE15DF0551
:1002B00089F0D8016D918D01D601ED91FC910190ED
:1002C000F081E02DC6011995892B11F47E0102C041
:1002D0002196ECCFC701DF91CF911F910F91FF9035
:1002E000EF90DF90CF900895FC01918D828D98174B
:1002F00061F0828DDF01A80FB11D5D968C91928D0A
:100300009F5F9F73928F90E008958FEF9FEF089506
:10031000FC01918D828D981731F0828DE80FF11DCF
:10032000858D90E008958FEF9FEF0895FC01918DEA
:10033000228D892F90E0805C9F4F821B91098F73E3
:100340009927089587E492E0F1DF21E0892B09F4F1
:1003500020E0822F0895FC01848DDF01A80FB11DDC
:10036000A35ABF4F2C91848D90E001968F739927EB
:10037000848FA689B7892C93A089B1898C918064D8
:100380008C93938D848D981306C00288F389E02D99
:1003900080818F7D80830895EF92FF920F931F934A
:1003A000CF93DF93EC0181E0888F9B8D8C8D981328
:1003B00005C0E889F989808185FD23C0F62E0B8D63
:1003C00010E00F5F1F4F0F731127E02E8C8DE81286
:1003D0000BC00FB607FCFACFE889F989808185FF49
:1003E000F5CFCE01B8DFF2CF8B8DFE01E80FF11D06
:1003F000E35AFF4FF0820B8FEA89FB89808180628C
:1004000007C0EE89FF896083E889F989808180646B
:10041000808381E090E0DF91CF911F910F91FF9059
:10042000EF900895CF93DF93EC01888D8823C1F07E
:10043000EA89FB89808185FD05C0A889B9898C91ED
:1004400086FD0EC00FB607FCF5CF808185FFF2CF89
:10045000A889B9898C9185FFEDCFCE017CDFE8CFEB
:10046000DF91CF91089580E090E0892B19F06ADF49
:10047000811125C080E090E0892B41F080E090E080
:10048000892B21F00E94000081111CC080E090E0C7
:10049000892B41F080E090E0892B21F00E94000040
:1004A000811113C080E090E0892BA1F080E090E002
:1004B000892B81F00E94000081110AC008950E94DA
:1004C0000000D8CF0E940000E1CF0E940000EACFD8
:1004D0000C9400000895362F90E0FC01E451FE4F8B
:1004E0004491FC01EA55FE4F2491FC01E05AFE4F75
:1004F0009491992309F46AC0442309F454C050E04C
:10050000FA013197E231F10508F04DC08827EE5825
:10051000FF4F8F4F23C6809180008F7707C0809157
:1005200080008F7D03C080918000877F8093800052
:100530003AC084B58F7702C084B58F7D84BD33C047
:100540008091B0008F7703C08091B0008F7D809341
:10055000B00029C0809190008F7707C080919000F3
:100560008F7D03C080919000877F809390001BC097
:100570008091A0008F7707C08091A0008F7D03C07D
:100580008091A000877F8093A0000DC08091200102
:100590008F7707C0809120018F7D03C0809120015B
:1005A000877F80932001E92FF0E0EE0FFF1FEA5BC9
:1005B000FE4FA591B4918FB7F894EC91311103C01F
:1005C00020952E2301C02E2B2C938FBF0895CF93FF
:1005D000DF9390E0FC01EA55FE4F2491FC01E05AC4
:1005E000FE4F8491882361F190E0880F991FFC01F0
:1005F000E45DFE4FC591D491FC01EA5BFE4FA591ED
:10060000B491611109C09FB7F89488812095822325
:100610008883EC912E230BC0623061F49FB7F8946D
:100620003881822F809583238883EC912E2B2C9305
:100630009FBF06C08FB7F894E8812E2B28838FBF09
:10064000DF91CF9108951F93CF93DF93182FEB0184
:1006500061E0BDDF209711F460E004C0CF3FD10519
:1006600031F461E0812FDF91CF911F9134CFE12FE1
:10067000F0E0E451FE4FE4914E2F50E0FA01319743
:10068000E231F10508F09CC08827EC57FF4F8F4FEF
:1006900065C584B5806884BDC7BD97C084B58062D8
:1006A00084BDC8BD92C08091800080688093800026
:1006B000D0938900C093880088C0809180008062B8
:1006C00080938000D0938B00C0938A007EC080917D
:1006D0008000886080938000D0938D00C0938C0050
:1006E00074C08091B00080688093B000C093B30064
:1006F0006CC08091B00080628093B000C093B40061
:1007000064C080919000806880939000D09399009D
:10071000C09398005AC080919000806280939000AE
:10072000D0939B00C0939A0050C080919000886045
:1007300080939000D0939D00C0939C0046C0809110
:10074000A00080688093A0008091A0008F7B8093A0
:10075000A000D093A900C093A80037C08091A0004A
:1007600080628093A000D093AB00C093AA002DC0FC
:100770008091A00088608093A000D093AD00C093CA
:10078000AC0023C080912001806880932001D09329
:100790002901C093280119C08091200180628093B3
:1007A0002001D0932B01C0932A010FC0809120011A
:1007B000886080932001D0932D01C0932C0105C047
:1007C000C038D1050CF04DCF47CFDF91CF911F91AD
:1007D00008953FB7F89480913B0290913C02A0911C
:1007E0003D02B0913E0226B5A89B05C02F3F19F0EF
:1007F0000196A11DB11D3FBFBA2FA92F982F8827A1
:10080000820F911DA11DB11DBC01CD0142E0660FFB
:10081000771F881F991F4A95D1F708958F929F924D
:10082000AF92BF92CF92DF92EF92FF926B017C0169
:10083000D0DF4B015C01C114D104E104F104E9F003
:10084000C8DFDC01CB0188199909AA09BB09883ED8
:100850009340A105B10578F321E0C21AD108E1085F
:10086000F10888EE880E83E0981EA11CB11CC1140B
:10087000D104E104F10421F7DECFFF90EF90DF9087
:10088000CF90BF90AF909F908F9008952FB7F8941E
:1008900060913702709138028091390290913A024A
:1008A0002FBF0895CF93DF93EC01862F1882198212
:1008B0001A821B82E8EEF3E0FD83EC836E837F8374
:1008C000598748873B872A8761E081DE61E0888518
:1008D0007EDE61E08A857BDE60E08A85DF91CF91F4
:1008E000FACD44D46115710579F0FB010190002027
:1008F000E9F73197AF01461B570BDC01ED91FC91F5
:100900000280F381E02D199480E090E008954F92E9
:100910005F926F927F92EF92FF920F931F93CF930C
:10092000DF93CDB7DEB7A1970FB6F894DEBF0FBE49
:10093000CDBF7C01FA01CB0119A2223008F42AE0D4
:100940008E010F5D1F4F422E512C612C712CBF0167
:10095000A30192010FD4F901CA01015011096A30B3
:1009600014F4605D01C0695CD8016C93232B242BC7
:10097000252B69F7B801C701B5DFA1960FB6F8942A
:10098000DEBF0FBECDBFDF91CF911F910F91FF90C2
:10099000EF907F906F905F904F9008951F920F920D
:1009A0000FB60F9211240BB60F922F933F934F93D4
:1009B0005F936F937F938F939F93AF93BF93EF93C7
:1009C000FF9387E492E0C7DCFF91EF91BF91AF9175
:1009D0009F918F917F916F915F914F913F912F9157
:1009E0000F900BBE0F900FBE0F901F9018951F9287
:1009F0000F920FB60F9211240BB60F922F938F9375
:100A00009F93EF93FF93E0915702F09158028081FA
:100A1000E0915D02F0915E0282FD12C090818091B2
:100A200060028F5F8F7320916102821751F0E09115
:100A30006002F0E0E95BFD4F958F8093600201C09A
:100A40008081FF91EF919F918F912F910F900BBE1D
:100A50000F900FBE0F901F9018951F920F920FB618
:100A60000F9211242F933F938F939F93AF93BF9334
:100A70008091370290913802A0913902B0913A02E8
:100A80003091360223E0230F2D3720F40196A11D6B
:100A9000B11D05C026E8230F0296A11DB11D2093AC
:100AA00036028093370290933802A0933902B093B4
:100AB0003A0280913B0290913C02A0913D02B0919C
:100AC0003E020196A11DB11D80933B0290933C0212
:100AD000A0933D02B0933E02BF91AF919F918F9141
:100AE0003F912F910F900FBE0F901F901895E7E444
:100AF000F2E01382128288EE93E0A0E0B0E08483FB
:100B00009583A683B78384E092E09183808385EC0C
:100B100090E09587848784EC90E09787868780ECC7
:100B200090E0918B808B81EC90E0938B828B82ECB8
:100B300090E0958B848B86EC90E0978B868B118E62
:100B4000128E138E148EE4EEF2E016821782108657
:100B50001186128613861486158616861786108AC5
:100B6000118A128A138A148A158A26E230E047E332
:100B700050E066E370E08CE293E094DE28E330E03E
:100B80004DE350E06CE370E088E393E08BDE2EE30E
:100B900030E040E350E06EE270E084E493E082DE17
:100BA00028E130E04CE150E06AE170E080E593E05C
:100BB00079DE2EE130E042E250E064E270E08CE564
:100BC00093E070DE61E089E002DD61E08AE0FFDC55
:100BD00061E088E0FCDC61E08DE0F9DC61E086E367
:100BE000F6DC61E087E3F3DC61E086E2F0DC62E002
:100BF00083E0EDDC62E082E0EADC61E08CE3E7DCEC
:100C000061E08DE3E4DC61E088E3E1DC62E08EE05A
:100C1000DEDC62E08FE0DBDC61E08EE2D8DC61E00C
:100C200080E3D5DC61E08EE3D2DC62E082E1CFDC00
:100C300062E083E1CCDC61E08AE1C9DC61E08CE167
:100C4000C6DC61E088E1C3DC61E084E2C0DC61E035
:100C500082E2BDDC61E08EE1BADC60E086E23BDC92
:100C600060E088E338DC60E08EE335DC60E088E15A
:100C700032DC60E08EE12FCC789484B5826084BD54
:100C800084B5816084BD85B5826085BD85B5816090
:100C900085BD80916E00816080936E00109281000E
:100CA00080918100826080938100809181008160C9
:100CB000809381008091800081608093800080918A
:100CC000B10084608093B1008091B0008160809316
:100CD000B00080919100826080939100809191009A
:100CE000816080939100809190008160809390005A
:100CF0008091A10082608093A1008091A100816019
:100D00008093A1008091A00081608093A0008091D9
:100D10002101826080932101809121018160809373
:100D200021018091200181608093200180917A00CF
:100D3000846080937A0080917A00826080937A0048
:100D400080917A00816080937A0080917A00806837
:100D500080937A001092C100109228031092290308
:100D600010922A0310922B031092E6021092E702CF
:100D70001092E8021092E90260ED77E080E090E0E6
:100D80004DDD87E492E09093270380932603E09162
:100D90005702F091580282E08083E0915302F09173
:100DA00054021082E0915502F091560280E1808356
:100DB00010925F02E0915B02F0915C0286E080831A
:100DC000E0915902F0915A02808180618083E09124
:100DD0005902F0915A02808188608083E091590223
:100DE000F0915A02808180688083E0915902F091ED
:100DF0005A0280818F7D808349DD6093E602709383
:100E0000E7028093E8029093E90260E172E080914A
:100E100026039091270366DD6AE070E080E090E0B1
:100E2000FDDC81E08093FA0288EEC82E83E0D82EA4
:100E3000E12CF12C90E1492E97E2592E612C712C76
:100E4000CBECD7E023DD672B682B692B39F41EDD53
:100E5000623071058105910508F4FBC017DD6093D0
:100E6000430270934402809345029093460200919E
:100E70003F021091400220914102309142026017DE
:100E800071078207930740F460933F02709340021A
:100E9000809341029093420200913F0210914002E0
:100EA00020914102309142024B015C01801A910A6B
:100EB000A20AB30A950184010A3F110521053105F3
:100EC00008F4C7C060933F027093400280934102D0
:100ED0009093420284EF91E0A0E0B0E08093F202B0
:100EE0009093F302A093F402B093F5021092F602ED
:100EF0001092F7021092F8021092F9028091EA0221
:100F00009091EB02A091EC02B091ED028093EE0281
:100F10009093EF02A093F002B093F102B7DC6093DC
:100F2000EA027093EB028093EC029093ED02AEDC48
:100F30006093E6027093E7028093E8029093E902DF
:100F4000A5DC4B015C0162E272E080912603909186
:100F50002703C8DC2AE041E050E060E070E08091C7
:100F6000260390912703D3DC69E272E08091260387
:100F700090912703B7DC2AE0B501A40180912603F4
:100F800090912703C4DC6BE272E08091260390917C
:100F90002703A8DC8091EA029091EB02A091EC0279
:100FA000B091ED02B501A401481B590B6A0B7B0BF4
:100FB0002AE08091260390912703A9DC6BE272E07E
:100FC00080912603909127038DDC4091EA02509195
:100FD000EB026091EC027091ED028091EE02909133
:100FE000EF02A091F002B091F102481B590B6A0B7D
:100FF0007B0B2AE0809126039091270388DC6DE229
:1010000072E080912603909127036CDC3FDCAB01FA
:10101000BC012AE0809126039091270378DC00919F
:101020002603109127036FE272E0C8015BDC6FE1D9
:1010300072E0C80157DC65E070E080E090E0EEDB34
:1010400025DC6093EA027093EB028093EC029093AC
:10105000ED021CDCA70196018DD0643F7140810533
:10106000910510F461E001C060E08DE034DA0EDC3F
:10107000A70196017FD06C3271408105910538F44B
:101080006FEF70E08AE0DFDA60E070E00FC0FEDB57
:10109000A70196016FD0683572408105910550F423
:1010A00060E070E08AE0CFDA6FEF70E088E0CBDAE2
:1010B00060E009C060E070E08AE0C5DA60E070E0FE
:1010C00088E0C1DA61E089E006DAE0DBA3019201A1
:1010D00051D0683873418105910570F461E087E370
:1010E000FAD961E08DE3F7D961E080E3F4D961E0FA
:1010F0008CE1F1D961E00DC060E087E3ECD960E0FC
:101100008DE3E9D960E080E3E6D960E08CE1E3D9E2
:1011100060E082E2E0D961E086E3DDD961E08CE362
:10112000DAD961E08EE2D7D961E08AE1D4D961E011
:1011300084E2D1D9CE010197F1F760E086E3CBD903
:1011400060E08CE3C8D960E08EE2C5D960E08AE156
:10115000C2D960E084E2BFD986D974CEEE0FFF1FFA
:10116000881F8BBF0790F691E02D199481E090E0E5
:10117000F89422C0A1E21A2EAA1BBB1BFD010DC0D0
:10118000AA1FBB1FEE1FFF1FA217B307E407F50737
:1011900020F0A21BB30BE40BF50B661F771F881F13
:1011A000991F1A9469F760957095809590959B01A9
:0C11B000AC01BD01CF010895F894FFCF01
:1011BC0000000000CC014901960174018801120263
:1011CC00564D4450565F317C315F564D4450560D50
:1011DC000A00564D4450455F003A323A007C005F9D
:0611EC00564D4450450081
:00000001FF
