:1000000019C1000046C1000044C1000042C1000007
:1000100040C100003EC100003CC100003AC10000E8
:1000200038C1000036C1000034C1000032C10000F8
:1000300030C100002EC100002CC100002AC1000008
:1000400028C1000026C1000024C1000022C1000018
:1000500020C100001EC100001CC1000035C5000009
:1000600018C10000FBC40000D0C4000012C1000091
:1000700010C100000EC100000CC100000AC1000048
:1000800008C1000006C1000004C1000002C1000058
:1000900000C10000FEC00000FCC00000FAC000006B
:1000A000F8C00000F6C00000F4C00000F2C000007C
:1000B000F0C00000EEC00000ECC00000EAC000008C
:1000C000E8C00000E6C00000E4C00000E2C000009C
:1000D000E0C00000DEC00000DCC00000DAC00000AC
:1000E000D8C000009A029D028C0290029402D402B1
:1000F000A102A502AB02AF02B302B902BD02C10266
:10010000D402C702CB02CF024A034F0354035E035B
:100110006803E10372037A0382038C039603A0034E
:10012000AF03B903E103C303CD03D70300002100EC
:10013000240027002A002D003000330001010000B8
:10014000040107010A0100002200250028002B00FD
:100150002E003100340002010000050108010B01EE
:1001600005050505070508080808020202020A0A33
:100170000808040404040101010101010101030351
:10018000030303030303040707070C0C0C0C0C0CFC
:100190000C0C0202020206060606060606060B0BF9
:1001A0000B0B0B0B0B0B010210202008081020403A
:1001B000102040800201020108040201010204082B
:1001C00010204080804020100804020180040201B9
:1001D0008040201008040201080402010102040802
:1001E00010204080010204081020408000000A0B0B
:1001F00002090C0D0E0807030401000000000000B6
:1002000000000000000000000000000000000000EE
:1002100000000000000000001211100000000000AB
:1002200000000000000000000000000000000000CE
:100230000000AE0511241FBECFEFD1E2DEBFCDBF5F
:1002400000E00CBF12E0A0E0B2E0ECEAF2E100E076
:100250000BBF02C007900D92A833B107D9F723E076
:10026000A8E3B2E001C01D92AF36B207E1F711E09A
:10027000CAE1D1E000E005C021970109802FFE010D
:10028000E5D7C931D10780E00807B1F72CD50C9428
:100290005409B6CECF92DF92EF92FF920F931F9345
:1002A000CF93DF936C017A018B01C0E0D0E0CE15D3
:1002B000DF0589F0D8016D918D01D601ED91FC919A
:1002C0000190F081E02DC6011995892B11F47E0172
:1002D00002C02196ECCFC701DF91CF911F910F9102
:1002E000FF90EF90DF90CF900895FC01918D828D6B
:1002F000981761F0828DDF01A80FB11D5D968C917A
:10030000928D9F5F9F73928F90E008958FEF9FEF84
:100310000895FC01918D828D981731F0828DE80F40
:10032000F11D858D90E008958FEF9FEF0895FC01FA
:10033000918D228D892F90E0805C9F4F821B9109C7
:100340008F739927089589E492E0F1DF21E0892BEA
:1003500009F420E0822F0895FC01848DDF01A80FAD
:10036000B11DA35ABF4F2C91848D90E001968F73DD
:100370009927848FA689B7892C93A089B1898C91FC
:1003800080648C93938D848D981306C00288F389C2
:10039000E02D80818F7D80830895EF92FF920F93EF
:1003A0001F93CF93DF93EC0181E0888F9B8D8C8D21
:1003B000981305C0E889F989808185FD23C0F62E50
:1003C0000B8D10E00F5F1F4F0F731127E02E8C8DE8
:1003D000E8120BC00FB607FCFACFE889F9898081D3
:1003E00085FFF5CFCE01B8DFF2CF8B8DFE01E80F90
:1003F000F11DE35AFF4FF0820B8FEA89FB89808160
:10040000806207C0EE89FF896083E889F98980816D
:100410008064808381E090E0DF91CF911F910F9104
:10042000FF90EF900895CF93DF93EC01888D8823A0
:10043000C1F0EA89FB89808185FD05C0A889B98959
:100440008C9186FD0EC00FB607FCF5CF808185FF2D
:10045000F2CFA889B9898C9185FFEDCFCE017CDFE1
:10046000E8CFDF91CF91089580E090E0892B19F0DB
:100470006ADF811125C080E090E0892B41F080E0A7
:1004800090E0892B21F00E94000081111CC080E0C7
:1004900090E0892B41F080E090E0892B21F00E94D0
:1004A0000000811113C080E090E0892BA1F080E072
:1004B00090E0892B81F00E94000081110AC008950C
:1004C0000E940000D8CF0E940000E1CF0E940000EF
:1004D000EACF0C9400000895362F90E0FC01E4511F
:1004E000FE4F4491FC01EA55FE4F2491FC01E05A75
:1004F000FE4F9491992309F46AC0442309F454C02F
:1005000050E0FA013197E231F10508F04DC088273B
:10051000EE58FF4F8F4F9AC6809180008F7707C0AB
:10052000809180008F7D03C080918000877F8093C1
:1005300080003AC084B58F7702C084B58F7D84BDBA
:1005400033C08091B0008F7703C08091B0008F7D61
:100550008093B00029C0809190008F7707C0809170
:1005600090008F7D03C080919000877F80939000E2
:100570001BC08091A0008F7707C08091A0008F7D65
:1005800003C08091A000877F8093A0000DC0809160
:1005900020018F7707C0809120018F7D03C080915B
:1005A0002001877F80932001E92FF0E0EE0FFF1FED
:1005B000EA5BFE4FA591B4918FB7F894EC9131119D
:1005C00003C020952E2301C02E2B2C938FBF08959E
:1005D000CF93DF9390E0FC01EA55FE4F2491FC019C
:1005E000E05AFE4F8491882361F190E0880F991FB3
:1005F000FC01E45DFE4FC591D491FC01EA5BFE4F26
:10060000A591B491611109C09FB7F8948881209594
:1006100082238883EC912E230BC0623061F49FB754
:10062000F8943881822F809583238883EC912E2B38
:100630002C939FBF06C08FB7F894E8812E2B288398
:100640008FBFDF91CF9108951F93CF93DF93182F22
:10065000EB0161E0BDDF209711F460E004C0CF3F03
:10066000D10531F461E0812FDF91CF911F9134CF1B
:10067000E12FF0E0E451FE4FE4914E2F50E0FA01FB
:100680003197E231F10508F09CC08827EC57FF4F05
:100690008F4FDCC584B5806884BDC7BD97C084B565
:1006A000806284BDC8BD92C08091800080688093C4
:1006B0008000D0938900C093880088C0809180001A
:1006C000806280938000D0938B00C0938A007EC0AC
:1006D00080918000886080938000D0938D00C093CB
:1006E0008C0074C08091B00080688093B000C0938B
:1006F000B3006CC08091B00080628093B000C09362
:10070000B40064C080919000806880939000D09382
:100710009900C09398005AC08091900080628093A5
:100720009000D0939B00C0939A0050C0809190009D
:10073000886080939000D0939D00C0939C0046C039
:100740008091A00080688093A0008091A0008F7BA2
:100750008093A000D093A900C093A80037C08091D7
:10076000A00080628093A000D093AB00C093AA0049
:100770002DC08091A00088608093A000D093AD0030
:10078000C093AC0023C08091200180688093200139
:10079000D0932901C093280119C080912001806263
:1007A00080932001D0932B01C0932A010FC0809128
:1007B0002001886080932001D0932D01C0932C01EB
:1007C00005C0C038D1050CF04DCF47CFDF91CF9198
:1007D0001F9108953FB7F89480913D0290913E0299
:1007E000A0913F02B091400226B5A89B05C02F3FC3
:1007F00019F00196A11DB11D3FBFBA2FA92F982F47
:100800008827820F911DA11DB11DBC01CD0142E0C1
:10081000660F771F881F991F4A95D1F708958F9209
:100820009F92AF92BF92CF92DF92EF92FF926B01B5
:100830007C01D0DF4B015C01C114D104E104F1045F
:10084000E9F0C8DFDC01CB0188199909AA09BB09C5
:10085000883E9340A105B10578F321E0C21AD10882
:10086000E108F10888EE880E83E0981EA11CB11CF7
:10087000C114D104E104F10421F7DECFFF90EF9021
:10088000DF90CF90BF90AF909F908F9008952FB73B
:10089000F8946091390270913A0280913B029091F4
:1008A0003C022FBF08952FEF3FEFFC0135832483D7
:1008B00061E0818511CECF93DF93EC0160E08F8101
:1008C0000BDE1E82DF91CF910895CF93DF93FC0161
:1008D0002681211119C0EC0184819581092E000C1B
:1008E000AA0BBB0B4081518162817381840F951FDC
:1008F000A61FB71F80839183A283B38361E08781A2
:10090000EBDD81E08E8301C080E0DF91CF9108951F
:10091000CF93DF93EC01862F188219821A821B82F3
:10092000E1E0F0E0FD83EC831E826F8378875A87D5
:1009300049873C872B8761E04BDE61E0898548DE93
:1009400061E08B8545DE60E08B85DF91CF91C4CD82
:1009500085D46115710579F0FB0101900020E9F75C
:100960003197AF01461B570BDC01ED91FC910280E2
:10097000F381E02D199480E090E008954F925F920A
:100980006F927F92EF92FF920F931F93CF93DF931B
:10099000CDB7DEB7A1970FB6F894DEBF0FBECDBFBF
:1009A0007C01FA01CB0119A2223008F42AE08E0161
:1009B0000F5D1F4F422E512C612C712CBF01A301E2
:1009C000920150D4F901CA01015011096A3014F49E
:1009D000605D01C0695CD8016C93232B242B252B0F
:1009E00069F7B801C701B5DFA1960FB6F894DEBF6D
:1009F0000FBECDBFDF91CF911F910F91FF90EF9070
:100A00007F906F905F904F9008951F920F920FB656
:100A10000F9211240BB60F922F933F934F935F9336
:100A20006F937F938F939F93AF93BF93EF93FF93B6
:100A300089E492E091DCFF91EF91BF91AF919F919A
:100A40008F917F916F915F914F913F912F910F9077
:100A50000BBE0F900FBE0F901F9018951F920F9214
:100A60000FB60F9211240BB60F922F938F939F9373
:100A7000EF93FF93E0915902F0915A028081E09147
:100A80005F02F091600282FD12C09081809162024B
:100A90008F5F8F7320916302821751F0E0916202A1
:100AA000F0E0E75BFD4F958F8093620201C080818B
:100AB000FF91EF919F918F912F910F900BBE0F900F
:100AC0000FBE0F901F9018951F920F920FB60F92A6
:100AD00011242F933F938F939F93AF93BF93809154
:100AE000390290913A02A0913B02B0913C023091C0
:100AF000380223E0230F2D3720F40196A11DB11DEC
:100B000005C026E8230F0296A11DB11D20933802CF
:100B10008093390290933A02A0933B02B0933C0237
:100B200080913D0290913E02A0913F02B09140021F
:100B30000196A11DB11D80933D0290933E02A093AA
:100B40003F02B0934002BF91AF919F918F913F912F
:100B50002F910F900FBE0F901F901895E9E4F2E0CF
:100B60001382128288EE93E0A0E0B0E08483958344
:100B7000A683B78386E092E09183808385EC90E042
:100B80009587848784EC90E09787868780EC90E057
:100B9000918B808B81EC90E0938B828B82EC90E048
:100BA000958B848B86EC90E0978B868B118E128EC2
:100BB000138E148EE6EEF2E01682178210861186EE
:100BC000128613861486158616861786108A118A51
:100BD000128A138A148A158A26E230E047E350E02D
:100BE00066E370E08EE293E093DE28E330E04DE3CD
:100BF00050E06CE370E08BE393E08ADE2EE330E0BC
:100C000040E350E06EE270E088E493E081DE28E1AA
:100C100030E04CE150E06AE170E085E593E078DE99
:100C20002EE130E042E250E064E270E082E693E0E0
:100C30006FDE61E089E0CCDC61E08AE0C9DC61E084
:100C400088E0C6DC61E08DE0C3DC61E086E3C0DC07
:100C500061E087E3BDDC61E086E2BADC62E083E06C
:100C6000B7DC62E082E0B4DC61E08CE3B1DC61E03F
:100C70008DE3AEDC61E088E3ABDC62E08EE0A8DC13
:100C800062E08FE0A5DC61E08EE2A2DC61E080E35F
:100C90009FDC61E08EE39CDC62E082E199DC62E053
:100CA00083E196DC61E08AE193DC61E08CE190DC39
:100CB00061E088E18DDC61E084E28ADC61E082E26F
:100CC00087DC61E08EE184DC60E086E205DC60E0E8
:100CD00088E302DC60E08EE3FFDB60E088E1FCDBC0
:100CE00060E08EE1F9CB789484B5826084BD84B5F0
:100CF000816084BD85B5826085BD85B5816085BD17
:100D000080916E00816080936E00109281008091CE
:100D10008100826080938100809181008160809356
:100D20008100809180008160809380008091B1007B
:100D300084608093B1008091B00081608093B000A6
:100D400080919100826080939100809191008160F8
:100D500080939100809190008160809390008091B9
:100D6000A10082608093A1008091A10081608093A6
:100D7000A1008091A00081608093A000809121015A
:100D80008260809321018091210181608093210103
:100D90008091200181608093200180917A0084609D
:100DA00080937A0080917A00826080937A008091AB
:100DB0007A00816080937A0080917A0080688093C5
:100DC0007A001092C10010922A0310922B03109205
:100DD0002C0310922D031092E8021092E902109257
:100DE000EA021092EB0260ED77E080E090E017DD20
:100DF00089E492E09093290380932803E0915902BB
:100E0000F0915A0282E08083E0915502F0915602FF
:100E10001082E0915702F091580280E18083109295
:100E20006102E0915D02F0915E0286E08083E091D4
:100E30005B02F0915C02808180618083E0915B02C3
:100E4000F0915C02808188608083E0915B02F09188
:100E50005C02808180688083E0915B02F0915C029B
:100E600080818F7D808313DD6093E8027093E902B7
:100E70008093EA029093EB0262E172E08091280392
:100E80009091290366DD6AE070E080E090E0C7DCC5
:100E900081E08093FC0248EEC42E43E0D42EE12C86
:100EA000F12CC1E0D0E050EA452E5FE0552E612CD8
:100EB000712C64EF262E33243394E9DC672B682BE6
:100EC000692B39F4E4DC623071058105910508F481
:100ED000FBC0DDDC609345027093460280934702BD
:100EE00090934802009141021091420220914302E6
:100EF00030914402601771078207930740F46093B2
:100F00004102709342028093430290934402009105
:100F100041021091420220914302309144024B0160
:100F20005C01801A910AA20AB30A950184010A3F62
:100F300011052105310508F4C7C060934102709383
:100F40004202809343029093440284EF91E0A0E038
:100F5000B0E08093F4029093F502A093F602B09370
:100F6000F7021092F8021092F9021092FA0210920F
:100F7000FB028091EC029091ED02A091EE02B09103
:100F8000EF028093F0029093F102A093F202B093EB
:100F9000F3027DDC6093EC027093ED028093EE022D
:100FA0009093EF0274DC6093E8027093E9028093FF
:100FB000EA029093EB026BDC4B015C0164E272E0AD
:100FC0008091280390912903C4DC2AE041E050E09D
:100FD00060E070E08091280390912903CFDC6BE200
:100FE00072E08091280390912903B3DC2AE0B501D7
:100FF000A4018091280390912903C0DC6DE272E086
:101000008091280390912903A4DC8091EC029091B7
:10101000ED02A091EE02B091EF02B501A401481BD0
:10102000590B6A0B7B0B2AE08091280390912903CE
:10103000A5DC6DE272E0809128039091290389DCA0
:101040004091EC025091ED026091EE027091EF023E
:101050008091F0029091F102A091F202B091F3021E
:10106000481B590B6A0B7B0B2AE080912803909157
:10107000290384DC6FE272E08091280390912903B8
:1010800068DC05DCAB01BC012AE08091280390916B
:10109000290374DC009128031091290361E372E0B5
:1010A000C80157DC61E272E0C80153DC65E070E022
:1010B00080E090E0B4DBEBDB6093EC027093ED0238
:1010C0008093EE029093EF02E2DBA7019601CAD073
:1010D000643F71408105910510F461E001C060E05A
:1010E0008DE0FAD9D4DBA7019601BCD06C327140F7
:1010F0008105910538F46FEF70E08AE0A5DA60E0D1
:1011000070E00FC0C4DBA7019601ACD06835724017
:101110008105910550F460E070E08AE095DA6FEFA8
:1011200070E088E091DA60E009C060E070E08AE099
:101130008BDA60E070E088E087DA61E089E0CCD9A2
:10114000A6DB20E137E240E050E08CD06838734104
:101150008105910548F5D0933303C093320360E0D5
:1011600080913703B9D9D0934003C0933F0360E027
:1011700080914403B1D9D0934D03C0934C0360E0F8
:1011800080915103A9D9D0935A03C093590360E0C9
:1011900080915E03A1D9D0936703C093660360E09A
:1011A00080916B0399D90FC08EE293E07CDB8BE3D7
:1011B00093E079DB88E493E076DB85E593E073DB0D
:1011C00082E693E070DB63DBA30192014BD0603DCC
:1011D00077408105910528F43092010220920002A7
:1011E00007C03AEF832E912C909201028092000268
:1011F0008EE293E06ADB8BE393E067DB88E493E0C5
:1012000064DB85E593E061DB82E693E05EDB809161
:101210000002909101028230910538F0880F991FE9
:10122000880F991F05970197F1F78EE293E043DB52
:101230008BE393E040DB88E493E03DDB85E593E0DE
:101240003ADB82E693E037DB0FD937CEEE0FFF1F94
:10125000881F8BBF0790F691E02D199481E090E0F4
:10126000F89422C0A1E21A2EAA1BBB1BFD010DC0DF
:10127000AA1FBB1FEE1FFF1FA217B307E407F50746
:1012800020F0A21BB30BE40BF50B661F771F881F22
:10129000991F1A9469F760957095809590959B01B8
:0C12A000AC01BD01CF010895F894FFCF10
:1012AC00E80300000000CD014A0197017501890196
:1012BC001302564D4450565F317C315F564D4450AD
:1012CC00560D0A00564D4450455F003A323A007CA8
:0812DC00005F564D445045002F
:00000001FF
